:020000040800F2
:1000000000500020652C0008792700087D27000893
:1000100081270008852700088927000800000000C4
:100020000000000000000000000000008D27000814
:100030009127000800000000952700089927000874
:10004000AD2C0008AD2C0008AD2C0008AD2C00082C
:10005000AD2C0008AD2C0008AD2C0008AD2C00081C
:10006000AD2C0008AD2C0008AD2C0008AD2C00080C
:10007000AD2C0008AD2C0008AD2C0008AD2C0008FC
:10008000AD2C0008AD2C0008AD2C0008AD2C0008EC
:10009000AD2C0008AD2C0008AD2C0008AD2C0008DC
:1000A000AD2C0008AD2C0008AD2C0008AD2C0008CC
:1000B000AD2C0008AD2C0008AD2C0008AD2C0008BC
:1000C000AD2C0008AD2C0008AD2C0008AD2C0008AC
:1000D000AD2C0008AD2C0008AD2C0008AD2C00089C
:1000E000AD2C0008AD2C0008AD2C0008000000006D
:1000F0000000000000000000000000000000000000
:0C01000000000000000000005FF808F1A3
:10010C0010B5054C237833B9044B13B10448AFF345
:10011C0000800123237010BD70000020000000003F
:10012C00983500080C4B43B10C4810B50C49AFF393
:10013C0000800C48036823B910BD0A48036833B922
:10014C007047094B002BF7D0BDE810401847064B01
:10015C00002BF5D0184700BF0000000098350008B0
:10016C007400002070000020000000004FF47A732F
:10017C0070B50D4D0D4A29781268B3FBF1F30646A4
:10018C00B2FBF3F000F0D2FC08B90F2E01D901201C
:10019C0070BD0446024631464FF0FF3000F090FC33
:1001AC006E60204670BD00BF0000002008000020DB
:1001BC00074A08B51368032043F01003136000F0DE
:1001CC006DFC0020FFF7D2FF02F080FA002008BD82
:1001DC0000200240034A044B11681B780B44136047
:1001EC00704700BF9C00002000000020014B1868E5
:1001FC00704700BF9C0000200246002070B492F8AB
:10020C00243083B0012B019054D001204B681F2661
:10021C00062B82F82400146824D803EB8303053BD7
:10022C00656B08689E4025EA060500FA03F32B432C
:10023C006363092826D9072600EB40038D681E3B13
:10024C00E1689E409D4021EA06032B43E360A0F148
:10025C001003012B25D90020002382F8243003B091
:10026C0070BC70470C2B03EB830327D80868233B27
:10027C00256B9E4025EA060500FA03F32B4309285B
:10028C002363D8D80725896800EB40062369B5405D
:10029C00B14023EA05030B432361A0F11003012BAA
:1002AC00D9D81A4B9C4214D0936A012043F02003F6
:1002BC009362D1E7022003B070BC7047413BE56A02
:1002CC0008689E4025EA060500FA03F32B43E36217
:1002DC00AFE7A3681B02BED4A368102843F4000345
:1002EC00A360B8D10A4B0B491B68A1FB03139B0CF1
:1002FC0003EB83035B000193019B002BABD0019BB1
:10030C00013B0193019B002BF9D1A4E70024014090
:10031C000800002083DE1B4338B503689A68D207B7
:10032C0001D4002038BD9A68044622F001029A607C
:10033C00FFF75CFF054623689B68DB07F1D5FFF7E9
:10034C0055FF401B0228F6D90120A36A43F0100385
:10035C00A362E36A0343E36238BD00BF002863D0A5
:10036C00F8B5836A0446002B45D02046FFF7D4FF2E
:10037C00A36A13F0100338D1002836D1A26A616841
:10038C0022F48852E669A56822F00202E76842F07E
:10039C0002023143B5F5807FA26241EA470130D0B9
:1003AC00012D4CD06269012A4FD0064622683B4B86
:1003BC00556825F46945556095682B400B4393604F
:1003CC00D36A374D23F470033343D36293681D40D3
:1003DC00A9422BD00120A36A23F0120343F010038F
:1003EC00A362E36A0343E362F8BDA36A012043F00E
:1003FC001003A362F8BDC36280F8243001F084FDC1
:10040C00B3E76369012B45D02268244B556825F46A
:10041C00694545F48075556095682B400B43936096
:10042C002369013B1E05CBE7012070470023E362E3
:10043C00A36A23F0030343F00103A362F8BD6369CD
:10044C00012B08BF4FF48073DED1E7B1A26A42F0F2
:10045C002002A262E26A42F00102E26222680F4EBE
:10046C005768B5F5807F27F4694743EA0703536063
:10047C00936806EA030646EA01069660D0D0012D81
:10048C00CED000269CE7A269013A43EA423343F4FA
:10049C000063E3E72B46002FD8D1F4E7FDF7E1FF2B
:1004AC00FE0E1FFF0122F0B54C69036802FA04F03E
:1004BC00C643D3F800224D6A22F47C5242EA05224C
:1004CC0042F00102C3F80022D3F81C52CA6935402D
:1004DC00C3F81C52002A3DD1CA688D88D3F80C721F
:1004EC00D1F808E045EA02450A8803EBC40437401A
:1004FC0042EA0E42C3F80C72C4F84052C4F84422CB
:10050C008A690ABBD3F804223240C3F804220A6970
:10051C00A2B9D3F814223240C3F814220A6A012A71
:10052C0004D1D3F81C221043C3F81C02D3F80022C8
:10053C00002022F00102C3F80022F0BDD3F81422EF
:10054C000243C3F81422E9E7D3F804220243C3F8A8
:10055C000422DCE7012AD3D1D3F80C228D8840EA9F
:10056C00020E0A688F6845EA02458A8903EBC404C7
:10057C0042EA0742C3F80CE2C4F84052C4F84422E1
:10058C00BEE700BF002800F09180F8B590F83C3031
:10059C00054603F0FF02002B7CD002222B6885F865
:1005AC003C201A6822F002021A601A6842F001021A
:1005BC001A60FFF71BFE064604E0FFF717FE801BD0
:1005CC000A285CD82A68546814F00104F5D05368E2
:1005DC00D9075AD5AB69E969012B0CBF80230023DD
:1005EC000129296A0CBF43F0400323F04003012981
:1005FC00696A0CBF43F0200323F020030129A96A88
:10060C000CBF43F0100323F010030129E96AE868DA
:10061C000CBF43F0080323F008030129A9682F69D4
:10062C006E696C6841EA0001106841EA07010CBF71
:10063C0043F0040323F00403013C20F0FC0031439D
:10064C00214303431360D161136823F0010313604A
:10065C00FFF7CCFD044604E0FFF7C8FD001B0A2899
:10066C001DD82B685A68D207F6D45B6813F00103C7
:10067C000BD101222B64184685F83C20F8BD0320D1
:10068C0085F83D4085F83C00F8BD0423012085F831
:10069C003C30F8BD80F83D2001F07EFC7DE7032066
:1006AC00002385F83C0085F83D30F8BD01207047EB
:1006BC00036802469868400103D49868000140F131
:1006CC00838092F83D0001287CD02DE9F04701246D
:1006DC0092F83C0082F83D40C0B2322800F0B08065
:1006EC00622800F0B180222877D0122082F83C00DA
:1006FC009868400177D4986810F0006F14BF0124FB
:10070C0002244FEA041E166B03EB0E00D0F8805146
:10071C00B76805F00105C0F88051F568002F40F06E
:10072C0084803768D0F880C145EA475747EA0C0700
:10073C00C0F880710D461746D0F88411326921F04B
:10074C000F0102F00F023261C0F88411D0F884114D
:10075C0073440A43C0F884217269DFF83881C3F806
:10076C008821B269DFF83091C3F88C21D0F8803140
:10077C00474E43F00103C0F88031FFF737FD824646
:10078C003A689368002C30D136EA030314BF012376
:10079C000023002B32D06B1CF3D035B1FFF726FDB4
:1007AC00A0EB0A008542EBD23A68032387F83C3071
:1007BC00002C65D1802393600023032087F83D3003
:1007CC00BDE8F087022070479868C0003FF579AF0C
:1007DC000423012082F83C307047422082F83C0010
:1007EC009868400187D500248BE7012C17D038EA94
:1007FC00030314BF01230023002BCCD197F83C300A
:10080C00DBB2522B34D0722B2AD0422B20D00123B6
:10081C00002087F83C3087F83D00BDE8F08739EAC6
:10082C00030314BF01230023B3E72F437568D0F8EB
:10083C0080C147EAC50747EA0C07C0F8807179E721
:10084C00522082F83C0053E7722082F83C004FE7BC
:10085C002223002087F83C3087F83D00BDE8F08764
:10086C006223002087F83C3087F83D00BDE8F08714
:10087C003223002087F83C3087F83D00BDE8F08734
:10088C00012C0CBF4FF400434FF40003936093E72B
:10089C00010000040000011000010008F8B529BB9C
:1008AC0090F83C30222B27D090F83C30422B23D0B0
:1008BC0090F83C30622B1FD090F83C30722B1BD040
:1008CC0090F83D30012B17D0012490F83C3080F883
:1008DC003D40DBB2322B34D0522B00F0C380122BB4
:1008EC0000F0C880222380F83C302DE0012905D08F
:1008FC0090F83D30012B12D10220F8BD90F83C301D
:10090C00322BF9D090F83C30522BF5D090F83C308B
:10091C00622BF1D090F83C30722BE9D1ECE701243A
:10092C0090F83C3080F83D40DBB2222B09D0422BB2
:10093C0000F09880122B00F09980322380F83C3024
:10094C0002E0622380F83C300C4615460646FFF761
:10095C004DFC07463268ACB9D36813F0030F0CBFDB
:10096C0001230023B3B16B1CF5D025B1FFF73EFC7E
:10097C00C01B8542EED20320002386F83C0086F88B
:10098C003D30F8BD136913F0030F0CBF0123002396
:10099C00002BE8D1706BB36B2101002C08BF034610
:1009AC005018D0F8B05105F004059D60002D54D1BD
:1009BC00D0F8B0516D0D1D601144D0F8B071D0F865
:1009CC00B4C1D0F8B451D1F8B80107F0020E1875C3
:1009DC00D1F8B8710CF00F003F0A5F75D1F8B871FF
:1009EC00C5F307253F0C9F75D1F8B871C3F80CE01F
:1009FC003F0EDF75D1F8BC7118611F76D1F8BC01C0
:100A0C00DD61000A5876D1F8BC011C62000C9876A6
:100A1C00D1F8BC11090ED976202384B9D36096F88D
:100A2C003C30DBB2622B35D0722B2FD0422B10D046
:100A3C00012386F83C30002086F83D00F8BD136198
:100A4C0096F83C30DBB2622B1CD0722B16D0522B9A
:100A5C00EED1122386F83C30EDE7D0F8B051ED081A
:100A6C005D60A9E7722380F83C306DE7522380F873
:100A7C003C3069E7422380F83C3065E7422386F836
:100A8C003C30D8E7222386F83C30D4E7522386F852
:100A9C003C30D0E7322386F83C30CCE74FF6FF01F0
:100AAC00064A0002D36800F4E0600B4043F0BF63D9
:100ABC0043F400330343D360704700BF00ED00E004
:100ACC00184B70B4DC68C4F30224C4F10706042E7E
:100ADC0004F1040328BF0426062B17D90125033C77
:100AEC00A540013D2A400123B340013B1940A140E0
:100AFC00002841EA02010CDB090100F16040C9B297
:100B0C0000F5614080F8001370BC70470022144659
:100B1C00E9E7054B00F00F000901C9B2034419764F
:100B2C0070BC704700ED00E0FCEC00E00138B0F167
:100B3C00807F0DD230B4F02500220721054B064CE6
:100B4C00586084F82350104630BC9A601960704786
:100B5C000120704710E000E000ED00E0044A04289A
:100B6C0013680CBF43F0040323F0040313607047B5
:100B7C0010E000E0704700BF08B5FFF7FBFF08BDB1
:100B8C002DE9F04F4FF0000885B043466FF01F067B
:100B9C00DFF8E0E1DFF8E0C1704F009005E00133D1
:100BAC00102B06F1040600F08B8001220C689A4091
:100BBC001440A242F3D14D68122D00F0A58000F232
:100BCC008E80022D00F0A78040F28380032D00F070
:100BDC009F80112D02D1CA6802F10408FF2C72D833
:100BEC00009A4FEA830A914612680F2505FA0AFB10
:100BFC0022EA0B0208FA0AFA42EA0A02C9F80020B1
:100C0C00D1F804A01AF0805FC9D0DEF8189023F058
:100C1C00030249F00109CEF81890DEF8189002F1A1
:100C2C00804209F00109CDF80C9002F5803203F0F6
:100C3C000309DDF80CB04FEA8909D2F808B005FABF
:100C4C0009F52BEA050001900098604579D0444DD8
:100C5C00A84279D0434D0098A8427AD0424D0098D2
:100C6C00A8420CBF4FF0030B4FF0040B0BFA09F921
:100C7C0001981AF4803F40EA090595603A6803F13F
:100C8C00010314BF2243A2433A607A681AF4003F6E
:100C9C0014BF2243A2437A60BA681AF4801F14BFAF
:100CAC002243A243BA60FA681AF4001F14BF14431B
:100CBC0022EA0404102BFC6006F104067FF475AFE5
:100CCC0005B0BDE8F08F0098B246426800F1040907
:100CDC008BE7A5B1012D81D1D1F80C807EE723489B
:100CEC0085420CD01BD92248854208D000F58030B3
:100CFC00854204D0DFF884904D457FF46FAF8D684A
:100D0C00BDB94FF0040869E7CA6802F10C0865E741
:100D1C004FF0000862E7CA6802F108085EE7DFF8E6
:100D2C0060904D45EBD009F580394D457FF456AFB9
:100D3C00E5E70098012D0CBF026142614FF00808F5
:100D4C004CE74FF0000993E74FF0010B0BFA09F950
:100D5C008EE74FF0020B0BFA09F989E7000401400A
:100D6C00000C014000100140001401400000211053
:100D7C000000311000100240000801400000221059
:100D8C00000011108368194214BF01200020704725
:100D9C0002B9090401617047C3685940C1607047CA
:100DAC0000287ED0F8B590F83D30044603F0FF02E1
:100DBC00002B61D02423226884F83D30136823F083
:100DCC000103136000F04AFB6368374A934230D842
:100DDC00364A90424ED95A00431EB3FBF2F301330C
:100DEC00C3F30B03042B38BF0423314AA2FB0020AE
:100DFC002268800C411C5060116200214FF0200EC3
:100E0C00E069E768266A256906433D436069A7697E
:100E1C00D361384316609560D0601368084643F080
:100E2C0001031360216484F83DE0216384F83E10D3
:100E3C00F8BD204A90421DD94FF496711C4D1E4AA4
:100E4C00A5FB0065AD0C01FB05F1A2FB0121A66819
:100E5C002268890901315560116296B9013803EB9A
:100E6C004303B0FBF3F30133C3F30B03BBB143F404
:100E7C000043C2E70120F8BD80F83C2001F0D4F912
:100E8C0098E703EB830303EB83030138B0FBF3F325
:100E9C000133C3F30B0313B143F44043ADE7012318
:100EAC00ABE70120704700BFA08601007F841E00C5
:100EBC0083DE1B43FF083D00D34D62102DE9F0414A
:100ECC00036882B0DD07044630D5AD494A6802F0AC
:100EDC000C02042A00F0FA804A6802F00C02082A7C
:100EEC0000F0F0806368B3F5803F00F07481002B54
:100EFC0000F00481B3F5A02F00F0A981A04B1A6873
:100F0C0022F480321A601A6822F480221A60FFF7E9
:100F1C006DF99B4D064605E0FFF768F9801B6428C8
:100F2C0000F217812B689A03F6D523689F0728D502
:100F3C00934A516811F00C0F00F0A980516801F030
:100F4C000C01082900F09F802369002B00F03281EE
:100F5C0001228C4B8A4D1A60FFF748F9064605E0D2
:100F6C00FFF744F9801B022800F2F3802B689807E6
:100F7C00F6D52B68626923F0F80343EAC2032B60B1
:100F8C0023681A075DD45D073AD57D4BDA69D0002A
:100F9C0000F1A6800125DA6942F08052DA61DB6942
:100FAC0003F080530093009B774B1A68D10540F1F6
:100FBC00BF80E368012B00F01481002B00F0CD8082
:100FCC00052B6F4B1A6A00F04F8122F001021A6256
:100FDC001A6A22F004021A62FFF708F9684E80467A
:100FEC0041F2883706E0FFF701F9A0EB0800B842A0
:100FFC0000F2AF80336A9B07F5D5002D40F0F780E7
:10100C00E369D3B15E4D6A6802F00C02082A45D040
:10101C00022B4FF000025D4B00F0EF801A60FFF7DF
:10102C00E5F82C46054605E0FFF7E0F8401B0228E2
:10103C0000F28F8023689B01F6D4002002B0BDE83B
:10104C00F081A369002B2DD00122514B4C4D1A601D
:10105C00FFF7CCF8064604E0FFF7C8F8801B02281F
:10106C0077D86B6A9B07F7D54A4B4B4A1B68A2FB98
:10107C0003235B0A019300BF019B5A1E0192002BB4
:10108C00F9D123687FE75268D6033FF55DAF3C4A40
:10109C001268950726D52269012A23D0012002B0B7
:1010AC00BDE8F0813A4A364D1360FFF79FF80646CB
:1010BC0004E0FFF79BF8801B02284AD86B6A9F0755
:1010CC00F7D4DEE74A68D0037FF50CAF2C4A1268E0
:1010DC0091037FF52BAF6268002A7FF427AFDDE721
:1010EC00002561E7264960690A6822F0F80242EAA5
:1010FC00C0020A601A077FF546AFA2E703F18043EE
:10110C0003F504331A681D4622F480321A601A68FB
:10111C0022F480221A60FFF769F8064604E0FFF714
:10112C0065F8801B642814D82B689B03F7D4FCE665
:10113C001A681E4642F480721A60FFF757F8074689
:10114C003368DA053FF535AFFFF750F8C01B64285C
:10115C00F6D9032002B0BDE8F08103F1804303F51A
:10116C0004331A6A1E4622F001021A621A6A41F20C
:10117C00883822F004021A62FFF738F8074612E0AA
:10118C0000100240000042420070004060004242E9
:10119C008004424208000020D34D6210FFF726F86D
:1011AC00C01B4045D5D8336A9807F7D4002D3FF4BF
:1011BC0027AF1CE0344A354D1360FFF717F806468D
:1011CC0004E0FFF713F8801B0228C2D82B6899079C
:1011DC00F7D42368D5E62D4A136843F480331360A3
:1011EC0095E62A4A136A43F001031362F4E6274A90
:1011FC00D36923F08053D36102E71A60FEF7F6FF40
:10120C00064604E0FEF7F2FF801B0228A1D82B68EB
:10121C009901F7D4226AB2F5803F2DD001251B4BE2
:10122C00606A5968024321F4741119480A435A60E0
:10123C0005601C46FEF7DAFF054604E0FEF7D6FF14
:10124C00401B022885D823689A01F7D5F5E603F1EF
:10125C008043A3F53C331A6842F480221A601A6862
:10126C0042F480321A6052E642F004021A621A6AA0
:10127C0042F001021A62AFE66B68A16823F40033F6
:10128C000B436B60CAE700BF0000424200100240F3
:10129C006000424270B50126022586B0154B0DF157
:1012AC00180E0FCB0EE90F00134C8DF804608DF85F
:1012BC000550636803F00C02082A0BD1C3F3834278
:1012CC007244DB0312F8102C07D40C4800FB02F01C
:1012DC0006B070BD0A4806B070BD63680848C3F319
:1012EC00404300FB02F0734413F8143CB0FBF3F0E2
:1012FC0006B070BDB03500080010024000093D007A
:10130C0000127A004E4A136803F007038B420BD28B
:10131C00136823F007030B431360136803F00703F0
:10132C00994201D00120704703682DE9F0419A07DA
:10133C0006D5444C8568626822F0F0022A4362604C
:10134C00DF0706460C4622D542683E4B012A1B6835
:10135C0072D0022A6AD0990729D53A4D41F28838C1
:10136C006B6823F0030313436B60FEF73FFF736856
:10137C000746012B49D0022B05D151E0FEF736FF71
:10138C00C01B404555D86B6813F00C0FF6D12C4A96
:10139C00136803F007039C420CD2136823F0070375
:1013AC0023431360136803F007039C4202D001200F
:1013BC00BDE8F08133685A0706D52249F0684A68BF
:1013CC0022F4E06202434A601B0707D51D4A3169CB
:1013DC00536823F4605343EAC1035360FFF75AFF89
:1013EC00184B19495B68194AC3F30313CB5C20FAF9
:1013FC0003F300201360FEF7B9FE0020BDE8F08176
:10140C00FEF7F4FEC01B404513D86B6803F00C03C9
:10141C00042BF5D1BBE7FEF7E9FEC01B404508D80D
:10142C006B6803F00C03082BF5D1B0E7980194D44A
:10143C00BDE70320BDE8F0819D038ED4B7E700BF64
:10144C000020024000100240C035000808000020B7
:10145C00014B1868704700BF08000020044B054979
:10146C005B68054AC3F30223CB5C1068D840704715
:10147C0000100240D035000808000020044B05493C
:10148C005B68054AC3F3C223CB5C1068D840704735
:10149C0000100240D0350008080000202DE9F04172
:1014AC000446006882B0C30727D53B4BDA69D700E6
:1014BC003BD53A4B00251A68D60544D5364A136AF3
:1014CC0013F440730FD0616801F4407083420BD069
:1014DC0001270026136A324923F440700F600E6016
:1014EC00D907106246D461682B4A136A23F44073FF
:1014FC000B431362002D38D1206883070DD410F0F4
:10150C00100007D00020244AE168536823F48003BC
:10151C000B43536002B0BDE8F0811F4AA1685368C9
:10152C0023F440430B435360E9E7DA69012542F0A9
:10153C008052DA61DB6903F080530193019B174BF6
:10154C001A68D605BAD41A681E4642F480721A601C
:10155C00FEF74CFE07463368D805AFD4FEF746FEBF
:10156C00C01B6428F7D90320D4E7D36923F0805338
:10157C00D361C1E71646FEF739FE41F28837804643
:10158C0005E0FEF733FEA0EB0800B842EBD8336A57
:10159C009A07F6D5A7E700BF001002400070004084
:1015AC004004424200283AD0F8B5002390F851206C
:1015BC0004468362002A2ED01A46022700210125F8
:1015CC00A6686368E0683343266903436069334364
:1015DC00E66903433343206AA66984F8517027688F
:1015EC00034306F40070034338681343360C20F0B1
:1015FC004002606A06F004060643E06A3A603B600B
:10160C007E603861FB69084623F40063FB61616509
:10161C0084F85150F8BD01F02BF8A26ACDE70120F7
:10162C00704700BF026AF0B422F001028E680262B9
:10163C00036A114D476882690C6823F0020322F09B
:10164C007302A84243EA060342EA040206D0496840
:10165C0047608261F0BC416303627047CE684C699D
:10166C008D6923F0080327F4407733432C4323F090
:10167C0004032743EBE700BF002C0140026AF0B4DF
:10168C0022F480728E680262036A124D4768C26946
:10169C000C6823F4007322F07302A84243EA062379
:1016AC0042EA040206D049684760C261F0BCC163DB
:1016BC0003627047CE684C698D6923F4006327F48C
:1016CC00405743EA06232C4323F4806347EA04176C
:1016DC00E9E700BF002C0140026AF0B422F480520A
:1016EC008F680262036A0D4E4568C2690C6823F468
:1016FC00005322F4E642B04243EA073342EA0422A2
:10170C0006D049684560C261F0BC01640362704751
:10171C004C6925F4804545EA8415F2E7002C01401C
:10172C00704700BF1D4A0368904221D0B0F1804F32
:10173C0030B414D0A2F59432904210D002F58062ED
:10174C0090420CD04D6923F080032B438C680A68BF
:10175C0003600123C462826230BC436170474A68F3
:10176C0023F070031343CA6823F440731343E9E76F
:10177C004A6823F070031343CA6823F4407313437D
:10178C004A6923F08003134303608B68C3620B68C0
:10179C0083620B690363012343617047002C014092
:1017AC00B8B190F83D3010B503F0FF0204465BB1C0
:1017BC000223206884F83D30211DFFF7B3FF01237D
:1017CC00002084F83D3010BD80F83C20FFF7A8FFC6
:1017DC00EEE70120704700BFB8B190F83D3010B56E
:1017EC0003F0FF0204465BB10223206884F83D300D
:1017FC00211DFFF797FF0123002084F83D3010BD19
:10180C0080F83C2001F0FAF8EEE70120704700BFA9
:10181C0000284DD090F83D302DE9F04103F0FF0247
:10182C0005460C46002B3ED029460223012751F8D1
:10183C00040B85F83D30836823F007038360FFF7C2
:10184C0071FF2E68A168B068B369A26923F4407E69
:10185C00236941EA0222E1691B0143EA0123E168A1
:10186C002EF0030E0B43316AD4F8148021F0AA0C2D
:10187C00216A42EA0E0243EA01336168D4F800E0BF
:10188C0022F47C4222F0FC0241EA081140EA0E00EC
:10189C00134341EA0C01B060B3610020316285F85A
:1018AC003D70BDE8F08180F83C2001F0BDF8BBE74D
:1018BC0001207047026AF0B422F010028E680262B6
:1018CC00036A124D476882690C6823F0200322F4E6
:1018DC00E642A84243EA061342EA042206D04968CB
:1018EC0047608261F0BC816303627047CE684C69CB
:1018FC008D6923F0800327F4406743EA06132C43D9
:10190C0023F0400347EA8407E9E700BF002C0140BD
:10191C0090F83C30012B1CD010B50223044601205A
:10192C0084F83D3084F83C000C2A0BD8DFE802F038
:10193C00170A0A0A070A0A0A1B0A0A0A130020686D
:10194C00FFF7B8FF0123002084F83D3084F83C00F9
:10195C0010BD022070472068FFF7BEFEF2E720683A
:10196C00FFF760FEEEE72068FFF788FEEAE700BFAE
:10197C0038B590F83C30012B2BD00D4602230121B9
:10198C00044680F83C1080F83D300C2A1AD8DFE869
:10199C0002F03519191907191919471919192200C3
:1019AC0029460068FFF786FF23682869996941F486
:1019BC0000619961996921F4806199619A6942EA9F
:1019CC0000229A610123002084F83D3084F83C0009
:1019DC0038BD022038BD29460068FFF77DFE23681C
:1019EC002869D96941F40061D961D96921F4806110
:1019FC00D961DA6942EA0022DA61E3E72946006834
:101A0C00FFF710FE23682869996941F00801996174
:101A1C00996921F0040199619A6902439A61D1E7AD
:101A2C0029460068FFF72AFE23682869D96941F026
:101A3C000801D961D96921F00401D961DA6902433D
:101A4C00DA61BFE790F83C30012B22D0024610B48B
:101A5C000024CB68886823F440730343486823F45C
:101A6C0080630343086823F400630343086923F489
:101A7C0080530343486923F400530343886923F4D8
:101A8C004043116803434B64204682F83C4010BC31
:101A9C0070470220704700BF90F83C30012B1FD0DC
:101AAC0002460220F0B500250126136882F83D009D
:101ABC005C68D1F800E024F070045C6058684F68F2
:101ACC0040EA0E0058609C68284624F080049C6014
:101ADC0099683943996082F83D6082F83C50F0BDBA
:101AEC00022070472DE9F04782460468C1682269DC
:101AFC00836822F440520A432261E2680069DAF8F2
:101B0C00141022F4B052034322F00C020B43134383
:101B1C00E3606369DAF81810514A23F440730B43FD
:101B2C009442636159D0FFF799FCDAF8043000EB6A
:101B3C00800000EB80009B00B0FBF3F3494F4FF0AB
:101B4C006408A7FB03235B091D01FFF787FCDAF888
:101B5C00042000EB8000930000EB8000B0FBF3F658
:101B6C00FFF77CFCDAF8042000EB8000930000EB1C
:101B7C008000B0FBF3F3A7FB03235B0908FB1363A3
:101B8C001B013233A7FB03235B0903F0F006FFF7BD
:101B9C0065FCDAF8042000EB800000EB8000930079
:101BAC00B0FBF3F9FFF75AFCDAF8043000EB8000D5
:101BBC0000EB80009B00B0FBF3F3A7FB03235B0956
:101BCC0008FB13931B013233A7FB0323C3F343130B
:101BDC0033432B44A360BDE8F087FFF74FFCDAF8E2
:101BEC00043000EB800000EB80009B00B0FBF3F3B3
:101BFC001C4F4FF06408A7FB03235B091D01FFF783
:101C0C003DFCDAF8042000EB8000930000EB800030
:101C1C00B0FBF3F6FFF732FCDAF8042000EB80009F
:101C2C00930000EB8000B0FBF3F3A7FB03235B09ED
:101C3C0008FB13631B013233A7FB03235B0903F07F
:101C4C00F006FFF71BFCDAF8042000EB8000930091
:101C5C0000EB8000B0FBF3F9FFF710FCA4E700BF2A
:101C6C00003801401F85EB512DE9F04107460E4627
:101C7C0090461D463C6801E06B1C06D1206836EA94
:101C8C000003F9D10020BDE8F08135B1FEF7AEFAC2
:101C9C00A0EB08008542EDD23C6820220021E368CD
:101CAC00032023F4D073E360636923F001036361C1
:101CBC0087F8392087F8381087F83A20BDE8F0818A
:101CCC0060B338B590F83930044603F0FF0203B323
:101CDC002423226884F83930D368204623F4005337
:101CEC00D360FFF7FFFE00252021236828461A69E0
:101CFC0022F490421A615A6922F02A025A61DA6877
:101D0C0042F40052DA60E56384F8391084F83A1032
:101D1C0038BD80F8382000F021FFD9E7012070474A
:101D2C00F0B5044690F8390083B0202802D0022088
:101D3C0003B0F0BD0D46002939D0002A37D01E461D
:101D4C0094F83830012BF2D0002001212123E063DC
:101D5C0084F8381084F839300192FEF747FA0746B8
:101D6C00019AA284E284E38C9BB2BBB1E38CA2689F
:101D7C00013B9BB2B2F5805FE3843A4633464FF0A9
:101D8C008001204615D0FFF76FFF70B923682A78C1
:101D9C0001355A60E38C9BB2002BE7D133463A46AF
:101DAC0040212046FFF760FF90B10320C0E70120DF
:101DBC00BEE7FFF759FF0028F7D12B88216822696D
:101DCC00C3F308034B600AB90235CCE70135CAE707
:101DDC00202384F8380084F83930A9E7F0B504469C
:101DEC0090F83A0083B0202802D0022003B0F0BD56
:101DFC000D46002939D0002A37D01E4694F83830C9
:101E0C00012BF2D0002001212223E06384F838104A
:101E1C0084F83A300192FEF7E9F90746019AA28557
:101E2C00E285E08D80B2D0B1E38DA268013B9BB21C
:101E3C00B2F5805FE3853A4633464FF020012046E9
:101E4C001DD0FFF711FF60BB236983B923680135EF
:101E5C005B6805F8013CE08D80B20028E4D12023BA
:101E6C0084F8380084F83A30C0E70120BEE72368D4
:101E7C0001355B6803F07F0305F8013CD1E7FFF700
:101E8C00F3FE70B9236933B923685B68C3F30803A5
:101E9C0025F8023BC5E723685B68DBB225F8013BFC
:101EAC00BFE70320A2E700BF30B500224FF4602447
:101EBC000121124B124D85B018469A60DA605A61B6
:101ECC005A601D60DC611961FEF748FA80B9032481
:101EDC000122002301A90948019402920393FEF701
:101EEC008BF918B14D21074800F09AFB05B030BDB5
:101EFC004321044800F094FBE9E700BFA000002058
:101F0C0000240140D835000802680E4B9A4200D0DC
:101F1C00704730B50825032403F56C439A6987B0E4
:101F2C0042F400729A619B690DEB050103F4007396
:101F3C00019305480295019B0394FEF721FE07B01F
:101F4C0030BD00BF002401400008014070B50022E4
:101F5C0002264FF450244FF400110C4B0C4D184634
:101F6C0083E860001C6159619A60DA609A61DA61F9
:101F7C001A625A629A62DA62FEF704FB00B970BD0B
:101F8C004A21BDE87040034800F04ABBD000002055
:101F9C0000640040E83500080268144B9A4200D0F7
:101FAC00704730B500244FF4006503F5D633DA6979
:101FBC0087B042F00072DA61DB6902A903F00073AA
:101FCC0001930B48019B0394049402954FF48054A5
:101FDC00FEF7D6FD0222032302A9054802940392C0
:101FEC000593FEF7CDFD07B030BD00BF0064004087
:101FFC00000801400122F0B500230E260C4D0D4CBB
:10200C0029788BB08F18059120466946069300936A
:10201C000193029303930493079208922F700996ED
:10202C00FEF740FA044A054B226363630BB0F0BD24
:10203C008C000020D000002014010020340100206E
:10204C001B4808B50368DB6813F0030301D118467D
:10205C0008BD0A220021FEF721FC164A1368C3F3BF
:10206C00C303082B13D0092B0FD1517D137D124ABA
:10207C0043EA012319461148138000F0C9FD0421DD
:10208C000F48FEF789FE012008BD012008BD517DD7
:10209C00137D0C4A43EA012319460B48138000F0C8
:1020AC00B7FD02210648FEF777FE012008BD00BFF0
:1020BC00D000002034010020300100200036000840
:1020CC000008014032010020F8350008002310B54B
:1020DC0088B0039368B14FF4906301930224074BCB
:1020EC0001AA18460A2104941A63FEF7E1FA08B013
:1020FC0010BD4FF480630193F0E700BFD0000020C7
:10210C00334B2DE9F0419A6988B042F010029A6184
:10211C009969304E01F01001009100999C692E4D87
:10212C0044F020049C619C69304604F02004019426
:10213C00019C00249F69012247F004079F619F695D
:10214C00072107F004070297029F9F694FF00108CF
:10215C0047F008079F619B69022703F0080303936C
:10216C00039BFEF715FE30462246F021FEF710FECB
:10217C002246284641F20301FEF70AFE4FF4604363
:10218C0004A91648049305940694FEF7F9FCF7236A
:10219C00304604A904930694CDF814800797FEF7F3
:1021AC00EFFC41F2030304A928460493CDF81480F4
:1021BC0006940797FEF7E4FC042304A9284605942B
:1021CC0006940493FEF7DCFC08B0BDE8F08100BF78
:1021DC000010024000080140000C014000100140BA
:1021EC0000224FF4804138B50B4B0C4D0C4C18466B
:1021FC009A60DA605A619A61DA611A621D605C60F9
:10220C001961FEF7CDFD00B938BD4221BDE838405B
:10221C00044800F005BA00BF5801002000540040EB
:10222C00A0860100083600080268124B9A4200D0C2
:10223C00704710B5122203234FF4407486B002A9E4
:10224C000D48039205930294FEF79AFC0B490C4A35
:10225C004B6843F0E06343F002034B60D36943F4F3
:10226C000013D361D36903F400130193019B06B0EF
:10227C0010BD00BF00540040000C014000000140A4
:10228C0000100240BFF34F8F0549064BCA6802F499
:10229C00E0621343CB60BFF34F8F00BFFDE700BF7D
:1022AC0000ED00E00400FA0530B501224FF4803354
:1022BC00002502244FF4E01195B00AA80A920E9260
:1022CC000B9312930C9511941391FEF7F7FD00B13B
:1022DC00FEE703460F254FF48062214605A80694BD
:1022EC000793099305950892FFF70CF800B1FEE7E8
:1022FC004FF4004301A801940393FFF7CFF8044671
:10230C0000B1FEE7FFF7A4F8084BA3FB00308009EF
:10231C00FEF70CFC0420FEF721FC224621464FF070
:10232C00FF30FEF7CDFB15B030BD00BFD34D6210B2
:10233C002DE9F04F89B0FDF73BFFFFF7B5FFFFF735
:10234C00DFFE00F065FAFFF74BFF00F0C7FB00F073
:10235C0069F9FFF7FBFD00F0E1FBFFF7A5FD00F0CD
:10236C00E1FA00F015FBFFF745FEFDF73FFF029089
:10237C00FDF73CFF4FF0000900F10A03DFF894B2BF
:10238C00CDF81490C846CDF81090CA46CDF80490FC
:10239C009E4E039316E09E4F23880221653B9BB211
:1023AC00622B94BF002201223046FEF7F1FC3B88E1
:1023BC000421793B9BB24E2B94BF00220122304664
:1023CC00FEF7E6FCFDF712FF019B8342C0F09A80FA
:1023DC00FDF70CFF8145C0F08780DBF800301B68EF
:1023EC009B060BD5322301220DF11F018948FFF703
:1023FC00F5FC9DF81F30102B00F0F480FDF7F6FE75
:10240C00029B8342C0F09180FDF7F0FE039B834258
:10241C00C0F09980FFF714FEFDF7E8FE82457E4C74
:10242C00B9D22388A3F16502622A3ED8049B002B03
:10243C0040D1B8F1000F00F0D780B8F1C70F40F2CF
:10244C00C580734F3B88793B9BB24E2B00F2A0802A
:10245C00042308AD05F8023D29460A2301226D48E4
:10246C00FFF75EFC4FF400516C48FEF78BFC48B94B
:10247C004FF0040E0A230122294666488DF81EE00F
:10248C00FFF74EFC022305934FF0040E29460A2356
:10249C00012260488DF81EE04FF00008FFF740FC69
:1024AC00FDF7A4FE00F1140A76E7C82B02D9049BB1
:1024BC00002B51D1B8F1000FBFD14FF40051574848
:1024CC00FEF760FC4FF00008059B002B00F09C8091
:1024DC00059A1346092A03F1010300F28380059340
:1024EC004B4F0DF11E05CFE7FDF780FE012208AD25
:1024FC0005F8022D00F5FA7929460A234548FFF71D
:10250C000FFC6AE701213046FEF746FC059B002BC9
:10251C0047D1B8F1000F50D1049B002B47D0FDF7E9
:10252C0065FE00F5FA73019352E70020FFF7CEFD2C
:10253C00FDF75CFE00F114030293FDF757FE039BBD
:10254C008342BFF467AF0120FFF7C0FDFDF74EFEDD
:10255C0000F1140303935DE7B8F1000F7FF46DAF46
:10256C000DF11E0503270A230122294629488DF85F
:10257C001E70FFF7D5FB00234FF0020804934FF4B5
:10258C0000512648FEF7FEFB00289DD1204F6FE737
:10259C004FF400512148FEF7F5FBA0B90DF11E05D3
:1025AC0066E7FDF723FE00F11403019310E7FDF736
:1025BC001DFE00F57A7301930AE7FDF717FE00F193
:1025CC006403019304E74FF4C8787DE703230122E9
:1025DC0008AD05F8023D29460A230E489044FFF742
:1025EC009FFBCCE7FFF74EFE022308AD05F8023D3A
:1025FC0029460A2301220748FFF792FB2388C82BA0
:10260C00B0D80123049358E7014F49E70008014073
:10261C0030010020C40200203201002000100140D3
:10262C00FEE700BF70B500224FF482764FF40074C1
:10263C000A210C4B0C4D184683E860009C61D96252
:10264C009A60DA601A615A61DA611A625A629A62A5
:10265C00FEF7A8FF00B970BD4521BDE870400348E6
:10266C00FFF7DEBFAC010020003800401836000830
:10267C000268144B9A4200D0704770B54FF4204654
:10268C000225032403F5EC33DA6986B042F4804268
:10269C00DA61DB6902A903F4804301930A48019BC8
:1026AC00029603950594FEF76BFA00234FF48042D3
:1026BC0002A90548029203930493FEF761FA06B04F
:1026CC0070BD00BF00380040000C0140254B00B528
:1026DC009A6983B042F001029A619A69032002F070
:1026EC0001020092009ADA6942F08052DA61DB69E9
:1026FC0003F080530193019BFEF7D0F900226FF099
:10270C000B001146FEF7DCF900226FF00A001146AF
:10271C00FEF7D6F900226FF009001146FEF7D0F94A
:10272C0000226FF004001146FEF7CAF900226FF088
:10273C0003001146FEF7C4F900226FF001001146A8
:10274C00FEF7BEF900224FF0FF301146FEF7B8F944
:10275C00054A536823F0E06343F00073536003B001
:10276C005DF804FB0010024000000140704700BF00
:10277C00FEE700BFFEE700BFFEE700BFFEE700BFBD
:10278C00704700BF704700BF704700BF08B5FDF72A
:10279C0021FDBDE80840FEF7EFB900BF30B44FF49F
:1027AC001F054FF000640E4B0E4A19680E4841F09D
:1027BC000101196059680A405A601A6822F0847243
:1027CC0022F480321A601A6822F480221A605A6845
:1027DC0022F4FE025A609D60846030BC704700BFDA
:1027EC00001002400000FFF800ED00E002234FF45F
:1027FC00E06200B585B0694604488DE80C0003938F
:10280C00FEF7BEF905B05DF804FB00BF00080140FF
:10281C00002340F2CF2230B53F4C404991B02046C6
:10282C006360A36023616361A3612160E260FEF7D2
:10283C00D3FF002842D13848FEF7B2FF002846D11A
:10284C0000236946344800930193FFF725F90028CB
:10285C005DD1002360251A4602A92F4803930493E7
:10286C0005930693079308930295FFF781F80028C8
:10287C0048D1042202A92848FFF77AF800283CD155
:10288C00002302A9082224480293FFF741F80028EC
:10289C002ED100234FF4005209A91F4809930A9323
:1028AC000B930C930D930F930E92FFF7CBF898B9F3
:1028BC0022681A4B9A4217D011B030BD18484521E6
:1028CC00FFF7AEFE1448FEF76BFF0028B8D04A2184
:1028DC001348FFF7A5FEB3E774211148FFF7A0FEDC
:1028EC0022680E4B9A42E7D1FFF780FF11B030BD42
:1028FC0068210B48FFF794FECBE762210848FFF7ED
:10290C008FFEBDE75D210648FFF78AFEB1E7512136
:10291C000348FFF785FE9CE744020020002C014091
:10292C0028360008F0B5002301244FF080474FF6FD
:10293C00FF760325144A8DB003A910461760D660A4
:10294C005360936013619361049306930793089308
:10295C000A930B93039505940994FEF759FF68B9F4
:10296C00002301A9084801930293FFF795F818B1C9
:10297C0098210648FFF754FE0DB0F0BD9121034895
:10298C00FFF74EFEECE700BF84020020283600085B
:10299C00F0B5002301244FF6FF760325144A8DB0C1
:1029AC00144F104603A904930693079308930A93B4
:1029BC000B9353609360136193611760D66003951A
:1029CC0005940994FEF724FF68B9002301A908486F
:1029DC0001930293FFF760F818B1BA210648FFF78C
:1029EC001FFE0DB0F0BDB3210348FFF719FEECE755
:1029FC000402002000040040283600080268094B3D
:102A0C009A4200D0704703F564439A6982B042F44D
:102A1C0000629A619B6903F400630193019B02B00D
:102A2C00704700BF002C014030B5036887B0B3F18C
:102A3C00804F21D0244A934201D007B030BD0024EE
:102A4C003025224B02A9DA69214842F00202DA61F0
:102A5C00DB69029503F002030193019B0394049438
:102A6C00FEF78EF81B4A536823F4406343F0E0638F
:102A7C0043F400635360E0E700244FF4004503F592
:102A8C000433DA6902A942F00102DA61DB69124807
:102A9C0003F001030093009B029503940494FEF74A
:102AAC006FF808230A480DEB030102930394049476
:102ABC00FEF766F8074A536823F4407343F0E0636B
:102ACC0043F480735360B8E70004004000100240E8
:102ADC00000C0140000001400008014038B5002204
:102AEC004FF4E1350C210A4B0A4C184683E83000B0
:102AFC0059619A60DA601A619A61DA61FFF7E0F85D
:102B0C0000B938BD4121BDE838400348FFF788BD06
:102B1C0004030020003801403836000838B5002284
:102B2C004FF4E1350C210A4B0A4C184683E830006F
:102B3C0059619A60DA601A619A61DA61FFF7C0F83C
:102B4C0000B938BD5221BDE838400348FFF768BDD5
:102B5C00C4020020004800403836000870B50368F5
:102B6C00264A86B0934224D0254A934201D006B01F
:102B7C0070BD4FF4806602250324224B02A9DA694A
:102B8C00214842F48022DA61DB69029603F4802347
:102B9C000193019B03950594FDF7F2FF00234FF47D
:102BAC00006202A91848029203930493FDF7E8FF10
:102BBC00DDE7402602250324124B02A99A6912482C
:102BCC0042F480429A619B69029603F4804300931D
:102BDC00009B03950594FDF7D3FF0023802202A9E7
:102BEC000948029203930493FDF7CAFF074A5368FE
:102BFC0043F0E06343F004035360B8E7003801404E
:102C0C000048004000100240000C01400000014050
:102C1C000FB430B5C3B046AC54F8042B02A823460D
:102C2C004FF48071019400F08DF89DF808305BB181
:102C3C00084D02AC0A23214601222846FFF770F802
:102C4C0014F8013F002BF5D143B0BDE8304004B07F
:102C5C00704700BF04030020002103E00B4B5B58BE
:102C6C00435004310A480B4B42189A42F6D30A4A95
:102C7C0002E0002342F8043B084B9A42F9D3FFF7D9
:102C8C008DFD00F00FF8FFF753FB704784360008FA
:102C9C00000000207000002070000020480300207D
:102CAC00FEE7000070B500250C4E0D4CA41BA410C3
:102CBC00A54209D100F06AFC00250A4E0A4CA41B5F
:102CCC00A410A54205D170BD56F8253098470135A2
:102CDC00EEE756F8253098470135F2E77C360008C8
:102CEC007C3600087C3600088036000830B5141E8F
:102CFC0005469BB0184605DA8B234FF0FF302B604E
:102D0C001BB030BD4FF40273ADF80C300CBF234632
:102D1C0004F1FF33029305934FF6FF730091049176
:102D2C00ADF80E3002461E9B6946284600F074F83A
:102D3C00431CBCBF8B232B60002CE1D00022009BDA
:102D4C001A70DDE707B5009313460A46014603489F
:102D5C000068FFF7CBFF03B05DF804FB0C0000200C
:102D6C002DE9F0478E6882469E420C469146984665
:102D7C0035D88A8912F4906F31D0022325680969FD
:102D8C006F1A656905EB450595FBF3F508F1010331
:102D9C003B449D4238BF1D46530531D5294600F0B2
:102DAC0047FB064650B90C23CAF80030A3894FF0F4
:102DBC00FF3043F04003A381BDE8F0873A46216918
:102DCC0000F0C4FAA38923F4906343F08003A38139
:102DDC0026613E44266046466561ED1BA56046456E
:102DEC0028BF464649463246206800F0BAFAA36826
:102DFC0000209B1BA36023681E442660BDE8F0875F
:102E0C002A4600F073FB06460028E1D121695046A2
:102E1C0000F0C2FAC7E700002DE9F04F9DB0039314
:102E2C008B8980461C060D4616460FD50B696BB96F
:102E3C00402100F0FDFA2860286128B90C23C8F85D
:102E4C0000304FF0FF30C4E040236B610023099346
:102E5C0020238DF8293030234FF0010B8DF82A30C8
:102E6C0037463C4614F8013B002B3CD1B7EB060A25
:102E7C000BD05346324629464046FFF771FF0130CE
:102E8C0000F0A280099B534409933B78002B00F07F
:102E9C009B8000234FF0FF32049307930592069317
:102EAC008DF853301A9305222178504800F040FADF
:102EBC00671C049BD8B9D90644BF20228DF8532037
:102ECC001A0744BF2B228DF8532022782A2A16D0B9
:102EDC0000210A20079A27463B780134303B092B06
:102EEC0050D9C9B111E0252BC0D02746B9E73F4ACC
:102EFC003C46801A0BFA00F018430490D3E7039A6F
:102F0C00111D12680391002A01DB079204E0524262
:102F1C0043F00203079204933B782E2B0DD17B7860
:102F2C00791C2A2B32D1039B02371A1D1B68039282
:102F3C00002BB8BF4FF0FF3305932D4C032239788B
:102F4C00204600F0F5F938B14023001B03FA00F0DD
:102F5C00049B0137034304933978062225487E1CD1
:102F6C008DF8281000F0E4F9002835D0224BFBB97D
:102F7C00039B073323F0070308330393099B4B444C
:102F8C0009936DE700FB02320121A4E700230A2418
:102F9C00184605930F463A780131303A092A03D97D
:102FAC00002BCAD00590C8E704FB00200123F1E7F1
:102FBC0003AB00932A46114B04A94046AFF30080A3
:102FCC00B0F1FF3F8146D9D1AB895B063FF539AFF4
:102FDC0009981DB0BDE8F08F03AB00932A46074B50
:102FEC0004A9404600F084F8EAE700BF4836000820
:102FFC004E36000852360008000000006D2D000807
:10300C002DE9F04791461F468A680B6906469342A4
:10301C00B8BF1346C9F8003091F843200C46DDF8D0
:10302C00208012B10133C9F800302368990642BFE1
:10303C00D9F800300233C9F80030256815F00605C0
:10304C0007D104F1190AE368D9F800209B1A9D42B4
:10305C002ADB94F843302268003318BF0123920610
:10306C002FD404F1430239463046C047013022D0F8
:10307C002368E56803F00603042B18BF0025D9F874
:10308C0000204FF0000908BFAD1AA368226908BFE1
:10309C0025EAE5759342C4BF9B1AED181A344D45C9
:1030AC001BD10020BDE8F08701235246394630463B
:1030BC00C047013003D14FF0FF30BDE8F087013538
:1030CC00C1E73020E11881F843005A1C94F84510F0
:1030DC002244023382F84310C3E7012322463946C7
:1030EC003046C0470130E6D009F10109D7E70000AE
:1030FC002DE9F04317460A7E85B06E2A984606469F
:10310C000C460C9B01F1430E00F0BC801AD8632ACC
:10311C002ED00AD8002A00F0C880582A00F08A80E5
:10312C0004F1420584F842202AE0642A01D0692A7D
:10313C00F6D121681A6811F0800F23D0111D196087
:10314C00136827E0732A00F0B48008D86F2A2AD0BD
:10315C00702AE5D10A6842F020020A6003E0752A61
:10316C0021D0782ADCD178226F4984F8452064E09C
:10317C001A6801F14205111D1960136884F8423078
:10318C000123A3E011F0400F02F104011960D7D024
:10319C00B2F90030002B03DA2D225B4284F8432075
:1031AC0062490A2217E02068196810F0800F03D0DA
:1031BC00081D18600B6806E010F0400F01F10400C8
:1031CC001860F7D00B886F2A14BF0A2208225749BF
:1031DC00002084F843006568002DA560C0F29C8037
:1031EC00206820F004002060002B3FD1002D40F01F
:1031FC0095807546082A0BD12368DA0708D5236910
:10320C0062689A42DEBF302305F8013C05F1FF35B8
:10321C00AEEB05032361CDF800803B4603AA2146A3
:10322C003046FFF7EDFE013055D14FF0FF3005B0C1
:10323C00BDE8F08381F845203C492268186812F0FB
:10324C00800F00F104051D6001D0036802E05506F3
:10325C00FBD50388D00744BF42F0200222601BB983
:10326C00226822F0200222601022B1E77546B3FBDF
:10327C00F2F002FB1033CB5C05F8013D034600284D
:10328C00F5D1B7E708681A6810F0800F496904D0C7
:10329C00101D18601368196007E010F0400F02F160
:1032AC00040018601368F6D019800023754623615A
:1032BC00B1E71A68111D196015680021626828466B
:1032CC0000F036F808B1401B60606368236100238E
:1032DC0084F843309FE723692A4639463046C04775
:1032EC000130A2D023689B0707D5002504F11909EA
:1032FC00E368039A9B1A9D4205DBE068039B9842A6
:10330C00B8BF184693E701234A4639463046C047B2
:10331C0001308AD00135EBE7002BA7D10B7804F1F3
:10332C00420584F8423065E76A36000859360008D1
:10333C0010B5C9B202449042034601D1002010BD21
:10334C001C7801308C42F6D1184610BD10B5431EC6
:10335C000A44914200D110BD11F8014B03F8014F02
:10336C00F7E7884210B501EB020303D8421E9942DD
:10337C000CD110BD9842F9D28118D21AD34200D187
:10338C0010BD13F8014D01F8014DF7E711F8014B91
:10339C0002F8014FEBE7000038B50546002943D091
:1033AC0051F8043C0C1F002BB8BFE41800F0D4F803
:1033BC001E4A1368104633B9636014602846BDE892
:1033CC00384000F0CAB8A3420BD921686218934266
:1033DC0001BF1A685B685218226063600460EDE7F5
:1033EC0013465A680AB1A242FAD919685818A04271
:1033FC000BD120680144581882421960DED1106844
:10340C005268014419605A60D8E702D90C232B602A
:10341C00D4E7206821188A4201BF11685268091844
:10342C00216062605C60C9E738BD00BF900000207D
:10343C0070B5CD1C25F0030508350C2D38BF0C25B7
:10344C00002D064601DBA94203D90C233360002072
:10345C0070BD00F081F8234A1468214691B9224CC2
:10346C0023681BB9304600F067F8206029463046C7
:10347C0000F062F8431C26D10C233046336000F078
:10348C006CF8E4E70B685B1B1AD40B2B0FD90B60A1
:10349C00CC18CD50304600F060F804F10B00231D21
:1034AC0020F00700C31A1BD05A42E25070BD8C4268
:1034BC000BBF63684B681360636018BF0C46E9E789
:1034CC000C464968CAE7C41C24F00304A04205D08A
:1034DC00211A304600F030F80130CDD02560D9E704
:1034EC0070BD00BF9000002094000020F8B5074686
:1034FC0014460E4621B91146BDE8F840FFF798BFB7
:10350C0022B9FFF749FF25462846F8BD00F026F8FA
:10351C0084420FD921463846FFF78AFF054600281A
:10352C00F2D031462246FFF711FF31463846FFF7FD
:10353C0033FFE9E73546E7E738B50023054C054688
:10354C000846236000F014F8431C02D1236803B131
:10355C002B6038BD440300207047704751F8040CB1
:10356C000028A0F10400BCBF0B58C0187047000025
:10357C00044A05491368002B08BF0B461844106019
:10358C00184670479800002048030020F8B500BF8B
:10359C00F8BC08BC9E467047F8B500BFF8BC08BC28
:0435AC009E46704780
:1035B00002030405060708090A0B0C0D0E0F101074
:1035C00000000000000000000102030406070809D3
:1035D00000000000010203042E2E2F5372632F619E
:1035E00064632E63000000002E2E2F5372632F633E
:1035F000616E2E6300000000532025640A0D000058
:10360000472025640A0D00002E2E2F5372632F6968
:1036100032632E63000000002E2E2F5372632F732F
:1036200070692E63000000002E2E2F5372632F74DA
:10363000696D2E63000000002E2E2F5372632F75CC
:10364000736172742E630000232D302B2000686C90
:103650004C006566674546470030313233343536B5
:1036600037383941424344454600303132333435EE
:0C3670003637383961626364656600001B
:04367C003101000810
:043680000D01000830
:10368400010000001000000000A24A041000002005
:103694000000000000000000000000000000000026
:1036A4000000000000000000000000000000000016
:1036B4000000000000000000000000000000000006
:1036C40000000000000000000000000000000000F6
:1036D40000000000000000000000000000000000E6
:1036E40000000000000000000000000000000000D6
:0400000508002C655E
:00000001FF
